{
  "contractName": "StudentPerformance",
  "abi": [
    {
      "constant": false,
      "inputs": [
        {
          "name": "name1",
          "type": "string"
        }
      ],
      "name": "setName",
      "outputs": [],
      "payable": false,
      "stateMutability": "nonpayable",
      "type": "function"
    },
    {
      "constant": false,
      "inputs": [
        {
          "name": "subjectName",
          "type": "string"
        },
        {
          "name": "score",
          "type": "uint128"
        }
      ],
      "name": "addSubjectDetails",
      "outputs": [],
      "payable": false,
      "stateMutability": "nonpayable",
      "type": "function"
    },
    {
      "constant": true,
      "inputs": [],
      "name": "getDetails",
      "outputs": [
        {
          "name": "",
          "type": "string"
        },
        {
          "name": "",
          "type": "uint128"
        },
        {
          "name": "",
          "type": "uint128"
        }
      ],
      "payable": false,
      "stateMutability": "view",
      "type": "function"
    },
    {
      "constant": true,
      "inputs": [],
      "name": "getMarks",
      "outputs": [
        {
          "name": "",
          "type": "uint128"
        }
      ],
      "payable": false,
      "stateMutability": "view",
      "type": "function"
    }
  ],
  "bytecode": "0x608060405234801561001057600080fd5b50610628806100206000396000f300608060405260043610610062576000357c0100000000000000000000000000000000000000000000000000000000900463ffffffff168063ac5f8a0014610067578063b780e507146100ec578063c47f00271461013b578063fbbf93a0146101a4575b600080fd5b34801561007357600080fd5b506100ea600480360381019080803590602001908201803590602001908080601f016020809104026020016040519081016040528093929190818152602001838380828437820191505050505050919291929080356fffffffffffffffffffffffffffffffff16906020019092919050505061028a565b005b3480156100f857600080fd5b50610101610408565b60405180826fffffffffffffffffffffffffffffffff166fffffffffffffffffffffffffffffffff16815260200191505060405180910390f35b34801561014757600080fd5b506101a2600480360381019080803590602001908201803590602001908080601f0160208091040260200160405190810160405280939291908181526020018383808284378201915050505050509192919290505050610451565b005b3480156101b057600080fd5b506101b961046b565b6040518080602001846fffffffffffffffffffffffffffffffff166fffffffffffffffffffffffffffffffff168152602001836fffffffffffffffffffffffffffffffff166fffffffffffffffffffffffffffffffff168152602001828103825285818151815260200191508051906020019080838360005b8381101561024d578082015181840152602081019050610232565b50505050905090810190601f16801561027a5780820380516001836020036101000a031916815260200191505b5094505050505060405180910390f35b60028290806001815401808255809150509060018203906000526020600020016000909192909190915090805190602001906102c7929190610557565b5050600381908060018154018082558091505090600182039060005260206000209060029182820401919006601002909192909190916101000a8154816fffffffffffffffffffffffffffffffff02191690836fffffffffffffffffffffffffffffffff1602179055505080600160009054906101000a90046fffffffffffffffffffffffffffffffff1601600160006101000a8154816fffffffffffffffffffffffffffffffff02191690836fffffffffffffffffffffffffffffffff160217905550600280549050600160009054906101000a90046fffffffffffffffffffffffffffffffff166fffffffffffffffffffffffffffffffff168115156103cb57fe5b04600160106101000a8154816fffffffffffffffffffffffffffffffff02191690836fffffffffffffffffffffffffffffffff1602179055505050565b60006003600081548110151561041a57fe5b90600052602060002090600291828204019190066010029054906101000a90046fffffffffffffffffffffffffffffffff16905090565b8060009080519060200190610467929190610557565b5050565b60606000806000600160009054906101000a90046fffffffffffffffffffffffffffffffff16600160109054906101000a90046fffffffffffffffffffffffffffffffff16828054600181600116156101000203166002900480601f0160208091040260200160405190810160405280929190818152602001828054600181600116156101000203166002900480156105455780601f1061051a57610100808354040283529160200191610545565b820191906000526020600020905b81548152906001019060200180831161052857829003601f168201915b50505050509250925092509250909192565b828054600181600116156101000203166002900490600052602060002090601f016020900481019282601f1061059857805160ff19168380011785556105c6565b828001600101855582156105c6579182015b828111156105c55782518255916020019190600101906105aa565b5b5090506105d391906105d7565b5090565b6105f991905b808211156105f55760008160009055506001016105dd565b5090565b905600a165627a7a72305820f63dfcfc40d19ad969f4cf2c8e338a29fda9007650b5a6ea6d7f0cc22ed0fc0c0029",
  "source": "pragma solidity ^0.4.0;\ncontract StudentPerformance {\n\n    string name;\n    uint128 totalScore;\n    uint128 averageScore;\n    string[] subject;\n    uint128[] subjectScore;\n\n  function setName(string name1){\n     name = name1;\n  }\n  \n  function addSubjectDetails(string subjectName, uint128 score){\n      subject.push(subjectName);\n      subjectScore.push(score);\n      totalScore = totalScore+score;\n      averageScore = (uint128)(totalScore/subject.length);\n      \n  }\n  \n  function getDetails() constant returns (string, uint128,uint128) {\n      return(name,totalScore,averageScore);\n  }\n  \n  function getMarks() constant returns (uint128) {\n      return(subjectScore[0]);\n  }\n\n}\n",
  "sourcePath": "/home/ubuntu/truffle/contracts/StudentPerformance.sol",
  "compiler": {
    "name": "solc",
    "version": "0.4.24+commit.e67f0147.Emscripten.clang"
  },
  "schemaVersion": "2.0.1",
  "updatedAt": "2018-11-01T14:04:49.034Z"
}